{
  "address": "0xCf7Ed3AccA5a467e9e704C703E8D87F634fB0Fc9",
  "abi": [
    {
      "inputs": [
        {
          "internalType": "address",
          "name": "vrfCoordinatorV2",
          "type": "address"
        },
        {
          "internalType": "uint256",
          "name": "entranceFee",
          "type": "uint256"
        },
        {
          "internalType": "bytes32",
          "name": "gasLane",
          "type": "bytes32"
        },
        {
          "internalType": "uint64",
          "name": "subscriptionId",
          "type": "uint64"
        },
        {
          "internalType": "uint32",
          "name": "callbackGasLimit",
          "type": "uint32"
        },
        {
          "internalType": "uint256",
          "name": "interval",
          "type": "uint256"
        }
      ],
      "stateMutability": "nonpayable",
      "type": "constructor"
    },
    {
      "inputs": [
        {
          "internalType": "address",
          "name": "have",
          "type": "address"
        },
        {
          "internalType": "address",
          "name": "want",
          "type": "address"
        }
      ],
      "name": "OnlyCoordinatorCanFulfill",
      "type": "error"
    },
    {
      "inputs": [],
      "name": "Raffle__NotEnoughETHEntered",
      "type": "error"
    },
    {
      "inputs": [],
      "name": "Raffle__NotOpen",
      "type": "error"
    },
    {
      "inputs": [],
      "name": "Raffle__TransferFailed",
      "type": "error"
    },
    {
      "inputs": [
        {
          "internalType": "uint256",
          "name": "currentBalance",
          "type": "uint256"
        },
        {
          "internalType": "uint256",
          "name": "numPlayers",
          "type": "uint256"
        },
        {
          "internalType": "uint256",
          "name": "raffleState",
          "type": "uint256"
        }
      ],
      "name": "Raffle__UpkeepNotNeeded",
      "type": "error"
    },
    {
      "anonymous": false,
      "inputs": [
        {
          "indexed": true,
          "internalType": "address",
          "name": "player",
          "type": "address"
        }
      ],
      "name": "RaffleEnter",
      "type": "event"
    },
    {
      "anonymous": false,
      "inputs": [
        {
          "indexed": true,
          "internalType": "uint256",
          "name": "requestId",
          "type": "uint256"
        }
      ],
      "name": "RequestedRaffleWinner",
      "type": "event"
    },
    {
      "anonymous": false,
      "inputs": [
        {
          "indexed": true,
          "internalType": "address",
          "name": "winner",
          "type": "address"
        }
      ],
      "name": "WinnerPicked",
      "type": "event"
    },
    {
      "inputs": [
        {
          "internalType": "bytes",
          "name": "",
          "type": "bytes"
        }
      ],
      "name": "checkUpkeep",
      "outputs": [
        {
          "internalType": "bool",
          "name": "upkeepNeeded",
          "type": "bool"
        },
        {
          "internalType": "bytes",
          "name": "",
          "type": "bytes"
        }
      ],
      "stateMutability": "nonpayable",
      "type": "function"
    },
    {
      "inputs": [],
      "name": "enterRaffle",
      "outputs": [],
      "stateMutability": "payable",
      "type": "function"
    },
    {
      "inputs": [],
      "name": "getEntranceFee",
      "outputs": [
        {
          "internalType": "uint256",
          "name": "",
          "type": "uint256"
        }
      ],
      "stateMutability": "view",
      "type": "function"
    },
    {
      "inputs": [],
      "name": "getInterval",
      "outputs": [
        {
          "internalType": "uint256",
          "name": "",
          "type": "uint256"
        }
      ],
      "stateMutability": "view",
      "type": "function"
    },
    {
      "inputs": [],
      "name": "getLatestTimeStamp",
      "outputs": [
        {
          "internalType": "uint256",
          "name": "",
          "type": "uint256"
        }
      ],
      "stateMutability": "view",
      "type": "function"
    },
    {
      "inputs": [],
      "name": "getNumOfPlayers",
      "outputs": [
        {
          "internalType": "uint256",
          "name": "",
          "type": "uint256"
        }
      ],
      "stateMutability": "view",
      "type": "function"
    },
    {
      "inputs": [],
      "name": "getNumWords",
      "outputs": [
        {
          "internalType": "uint256",
          "name": "",
          "type": "uint256"
        }
      ],
      "stateMutability": "pure",
      "type": "function"
    },
    {
      "inputs": [
        {
          "internalType": "uint256",
          "name": "index",
          "type": "uint256"
        }
      ],
      "name": "getPlayer",
      "outputs": [
        {
          "internalType": "address",
          "name": "",
          "type": "address"
        }
      ],
      "stateMutability": "view",
      "type": "function"
    },
    {
      "inputs": [],
      "name": "getRaffleState",
      "outputs": [
        {
          "internalType": "enum Raffle.RaffleState",
          "name": "",
          "type": "uint8"
        }
      ],
      "stateMutability": "view",
      "type": "function"
    },
    {
      "inputs": [],
      "name": "getRecentWinner",
      "outputs": [
        {
          "internalType": "address",
          "name": "",
          "type": "address"
        }
      ],
      "stateMutability": "view",
      "type": "function"
    },
    {
      "inputs": [],
      "name": "getRequestConfirmations",
      "outputs": [
        {
          "internalType": "uint256",
          "name": "",
          "type": "uint256"
        }
      ],
      "stateMutability": "pure",
      "type": "function"
    },
    {
      "inputs": [
        {
          "internalType": "bytes",
          "name": "",
          "type": "bytes"
        }
      ],
      "name": "performUpkeep",
      "outputs": [],
      "stateMutability": "nonpayable",
      "type": "function"
    },
    {
      "inputs": [
        {
          "internalType": "uint256",
          "name": "requestId",
          "type": "uint256"
        },
        {
          "internalType": "uint256[]",
          "name": "randomWords",
          "type": "uint256[]"
        }
      ],
      "name": "rawFulfillRandomWords",
      "outputs": [],
      "stateMutability": "nonpayable",
      "type": "function"
    },
    {
      "inputs": [
        {
          "internalType": "uint256",
          "name": "",
          "type": "uint256"
        }
      ],
      "name": "s_players",
      "outputs": [
        {
          "internalType": "address payable",
          "name": "",
          "type": "address"
        }
      ],
      "stateMutability": "view",
      "type": "function"
    }
  ],
  "transactionHash": "0x11092476ba749a99b9194936a2ae6317afe6aa63f8faa0cfee2a67f54e749014",
  "args": [
    "0x6168499c0cFfCaCD319c818142124B7A15E857ab",
    "100000000000000000",
    "0xd89b2bf150e3b9e13446986e571fb9cab24b13cea0a43ea20a6049a85cc807cc",
    "8174",
    "500000",
    "30"
  ],
  "numDeployments": 1,
  "solcInputHash": "aa8d3db8c7f23653cba2af080fd5d662",
  "bytecode": "0x6101606040523480156200001257600080fd5b506040516200190c3803806200190c8339818101604052810190620000389190620001ad565b858073ffffffffffffffffffffffffffffffffffffffff1660808173ffffffffffffffffffffffffffffffffffffffff1660601b81525050508460a081815250508573ffffffffffffffffffffffffffffffffffffffff1660c08173ffffffffffffffffffffffffffffffffffffffff1660601b815250508360e081815250508267ffffffffffffffff166101008167ffffffffffffffff1660c01b815250508163ffffffff166101208163ffffffff1660e01b815250506000600160146101000a81548160ff02191690836001811115620001195762000118620002b5565b5b0217905550426002819055508061014081815250505050505050506200036b565b6000815190506200014b81620002e9565b92915050565b600081519050620001628162000303565b92915050565b60008151905062000179816200031d565b92915050565b600081519050620001908162000337565b92915050565b600081519050620001a78162000351565b92915050565b60008060008060008060c08789031215620001cd57620001cc620002e4565b5b6000620001dd89828a016200013a565b9650506020620001f089828a0162000168565b95505060406200020389828a0162000151565b94505060606200021689828a0162000196565b93505060806200022989828a016200017f565b92505060a06200023c89828a0162000168565b9150509295509295509295565b6000620002568262000267565b9050919050565b6000819050919050565b600073ffffffffffffffffffffffffffffffffffffffff82169050919050565b6000819050919050565b600063ffffffff82169050919050565b600067ffffffffffffffff82169050919050565b7f4e487b7100000000000000000000000000000000000000000000000000000000600052602160045260246000fd5b600080fd5b620002f48162000249565b81146200030057600080fd5b50565b6200030e816200025d565b81146200031a57600080fd5b50565b620003288162000287565b81146200033457600080fd5b50565b620003428162000291565b81146200034e57600080fd5b50565b6200035c81620002a1565b81146200036857600080fd5b50565b60805160601c60a05160c05160601c60e0516101005160c01c6101205160e01c61014051611525620003e76000396000818161085a01526108c8015260006106fd015260006106da015260006106b90152600061067d015260008181610352015261044f01526000818161038f01526103e301526115256000f3fe6080604052600436106100dd5760003560e01c806353a2c19a1161007f5780636e04ff0d116100595780636e04ff0d1461026b57806391ad27b4146102a9578063ae771f6b146102d4578063e55ae4e814610311576100dd565b806353a2c19a146101ea578063565429de146102155780635f1b0fd814610240576100dd565b80632cfcc539116100bb5780632cfcc53914610161578063320229eb1461016b5780634585e33b14610196578063473f1ddc146101bf576100dd565b806309bc33a7146100e2578063115cbaf51461010d5780631fe543e314610138575b600080fd5b3480156100ee57600080fd5b506100f761034e565b6040516101049190611119565b60405180910390f35b34801561011957600080fd5b50610122610376565b60405161012f91906110fe565b60405180910390f35b34801561014457600080fd5b5061015f600480360381019061015a9190610ec8565b61038d565b005b61016961044d565b005b34801561017757600080fd5b506101806105bc565b60405161018d9190611119565b60405180910390f35b3480156101a257600080fd5b506101bd60048036038101906101b89190610dd8565b6105c6565b005b3480156101cb57600080fd5b506101d46107c5565b6040516101e1919061101c565b60405180910390f35b3480156101f657600080fd5b506101ff6107ef565b60405161020c9190611119565b60405180910390f35b34801561022157600080fd5b5061022a6107fe565b6040516102379190611119565b60405180910390f35b34801561024c57600080fd5b5061025561080a565b6040516102629190611119565b60405180910390f35b34801561027757600080fd5b50610292600480360381019061028d9190610e25565b610817565b6040516102a092919061107b565b60405180910390f35b3480156102b557600080fd5b506102be6108c4565b6040516102cb9190611119565b60405180910390f35b3480156102e057600080fd5b506102fb60048036038101906102f69190610e6e565b6108ec565b6040516103089190611037565b60405180910390f35b34801561031d57600080fd5b5061033860048036038101906103339190610e6e565b61092b565b604051610345919061101c565b60405180910390f35b60007f0000000000000000000000000000000000000000000000000000000000000000905090565b6000600160149054906101000a900460ff16905090565b7f000000000000000000000000000000000000000000000000000000000000000073ffffffffffffffffffffffffffffffffffffffff163373ffffffffffffffffffffffffffffffffffffffff161461043f57337f00000000000000000000000000000000000000000000000000000000000000006040517f1cf993f4000000000000000000000000000000000000000000000000000000008152600401610436929190611052565b60405180910390fd5b6104498282610972565b5050565b7f00000000000000000000000000000000000000000000000000000000000000003410156104a7576040517fbd4e069500000000000000000000000000000000000000000000000000000000815260040160405180910390fd5b600060018111156104bb576104ba611405565b5b600160149054906101000a900460ff1660018111156104dd576104dc611405565b5b14610514576040517f1425571c00000000000000000000000000000000000000000000000000000000815260040160405180910390fd5b6000339080600181540180825580915050600190039060005260206000200160009091909190916101000a81548173ffffffffffffffffffffffffffffffffffffffff021916908373ffffffffffffffffffffffffffffffffffffffff1602179055503373ffffffffffffffffffffffffffffffffffffffff167f0805e1d667bddb8a95f0f09880cf94f403fb596ce79928d9f29b74203ba284d460405160405180910390a2565b6000600254905090565b60006105e060405180602001604052806000815250610817565b5090508061064f5747600080549050600160149054906101000a900460ff16600181111561061157610610611405565b5b6040517f584327aa00000000000000000000000000000000000000000000000000000000815260040161064693929190611134565b60405180910390fd5b60018060146101000a81548160ff0219169083600181111561067457610673611405565b5b021790555060007f000000000000000000000000000000000000000000000000000000000000000073ffffffffffffffffffffffffffffffffffffffff16635d3b1d307f00000000000000000000000000000000000000000000000000000000000000007f000000000000000000000000000000000000000000000000000000000000000060037f000000000000000000000000000000000000000000000000000000000000000060016040518663ffffffff1660e01b815260040161073e9594939291906110ab565b602060405180830381600087803b15801561075857600080fd5b505af115801561076c573d6000803e3d6000fd5b505050506040513d601f19601f820116820180604052508101906107909190610e9b565b9050807fcd6e45c8998311cab7e9d4385596cac867e20a0587194b954fa3a731c93ce78b60405160405180910390a250505050565b6000600160009054906101000a900473ffffffffffffffffffffffffffffffffffffffff16905090565b6000600163ffffffff16905090565b60008080549050905090565b6000600361ffff16905090565b600060606000600160149054906101000a900460ff16600181111561083f5761083e611405565b5b6000600181111561085357610852611405565b5b14905060007f0000000000000000000000000000000000000000000000000000000000000000600254426108879190611214565b119050600080600080549050119050600080471190508380156108a75750825b80156108b05750815b80156108b95750805b955050505050915091565b60007f0000000000000000000000000000000000000000000000000000000000000000905090565b600081815481106108fc57600080fd5b906000526020600020016000915054906101000a900473ffffffffffffffffffffffffffffffffffffffff1681565b60008082815481106109405761093f611434565b5b9060005260206000200160009054906101000a900473ffffffffffffffffffffffffffffffffffffffff169050919050565b600080805490508260008151811061098d5761098c611434565b5b602002602001015161099f9190611376565b905060008082815481106109b6576109b5611434565b5b9060005260206000200160009054906101000a900473ffffffffffffffffffffffffffffffffffffffff16905080600160006101000a81548173ffffffffffffffffffffffffffffffffffffffff021916908373ffffffffffffffffffffffffffffffffffffffff1602179055506000600160146101000a81548160ff02191690836001811115610a4a57610a49611405565b5b0217905550600067ffffffffffffffff811115610a6a57610a69611463565b5b604051908082528060200260200182016040528015610a985781602001602082028036833780820191505090505b5060009080519060200190610aae929190610ba3565b504260028190555060008173ffffffffffffffffffffffffffffffffffffffff1647604051610adc90611007565b60006040518083038185875af1925050503d8060008114610b19576040519150601f19603f3d011682016040523d82523d6000602084013e610b1e565b606091505b5050905080610b59576040517fa1d04b3900000000000000000000000000000000000000000000000000000000815260040160405180910390fd5b8173ffffffffffffffffffffffffffffffffffffffff167f5b690ec4a06fe979403046eaeea5b3ce38524683c3001f662c8b5a829632f7df60405160405180910390a25050505050565b828054828255906000526020600020908101928215610c1c579160200282015b82811115610c1b5782518260006101000a81548173ffffffffffffffffffffffffffffffffffffffff021916908373ffffffffffffffffffffffffffffffffffffffff16021790555091602001919060010190610bc3565b5b509050610c299190610c2d565b5090565b5b80821115610c46576000816000905550600101610c2e565b5090565b6000610c5d610c5884611190565b61116b565b90508083825260208201905082856020860282011115610c8057610c7f61149c565b5b60005b85811015610cb05781610c968882610dae565b845260208401935060208301925050600181019050610c83565b5050509392505050565b6000610ccd610cc8846111bc565b61116b565b905082815260208101848484011115610ce957610ce86114a1565b5b610cf4848285611303565b509392505050565b600082601f830112610d1157610d10611497565b5b8135610d21848260208601610c4a565b91505092915050565b60008083601f840112610d4057610d3f611497565b5b8235905067ffffffffffffffff811115610d5d57610d5c611492565b5b602083019150836001820283011115610d7957610d7861149c565b5b9250929050565b600082601f830112610d9557610d94611497565b5b8135610da5848260208601610cba565b91505092915050565b600081359050610dbd816114d8565b92915050565b600081519050610dd2816114d8565b92915050565b60008060208385031215610def57610dee6114ab565b5b600083013567ffffffffffffffff811115610e0d57610e0c6114a6565b5b610e1985828601610d2a565b92509250509250929050565b600060208284031215610e3b57610e3a6114ab565b5b600082013567ffffffffffffffff811115610e5957610e586114a6565b5b610e6584828501610d80565b91505092915050565b600060208284031215610e8457610e836114ab565b5b6000610e9284828501610dae565b91505092915050565b600060208284031215610eb157610eb06114ab565b5b6000610ebf84828501610dc3565b91505092915050565b60008060408385031215610edf57610ede6114ab565b5b6000610eed85828601610dae565b925050602083013567ffffffffffffffff811115610f0e57610f0d6114a6565b5b610f1a85828601610cfc565b9150509250929050565b610f2d8161125a565b82525050565b610f3c81611248565b82525050565b610f4b8161126c565b82525050565b610f5a81611278565b82525050565b6000610f6b826111ed565b610f7581856111f8565b9350610f85818560208601611312565b610f8e816114b0565b840191505092915050565b610fa2816112f1565b82525050565b6000610fb5600083611209565b9150610fc0826114c1565b600082019050919050565b610fd481611295565b82525050565b610fe3816112c3565b82525050565b610ff2816112cd565b82525050565b611001816112dd565b82525050565b600061101282610fa8565b9150819050919050565b60006020820190506110316000830184610f33565b92915050565b600060208201905061104c6000830184610f24565b92915050565b60006040820190506110676000830185610f33565b6110746020830184610f33565b9392505050565b60006040820190506110906000830185610f42565b81810360208301526110a28184610f60565b90509392505050565b600060a0820190506110c06000830188610f51565b6110cd6020830187610ff8565b6110da6040830186610fcb565b6110e76060830185610fe9565b6110f46080830184610fe9565b9695505050505050565b60006020820190506111136000830184610f99565b92915050565b600060208201905061112e6000830184610fda565b92915050565b60006060820190506111496000830186610fda565b6111566020830185610fda565b6111636040830184610fda565b949350505050565b6000611175611186565b90506111818282611345565b919050565b6000604051905090565b600067ffffffffffffffff8211156111ab576111aa611463565b5b602082029050602081019050919050565b600067ffffffffffffffff8211156111d7576111d6611463565b5b6111e0826114b0565b9050602081019050919050565b600081519050919050565b600082825260208201905092915050565b600081905092915050565b600061121f826112c3565b915061122a836112c3565b92508282101561123d5761123c6113a7565b5b828203905092915050565b6000611253826112a3565b9050919050565b6000611265826112a3565b9050919050565b60008115159050919050565b6000819050919050565b6000819050611290826114c4565b919050565b600061ffff82169050919050565b600073ffffffffffffffffffffffffffffffffffffffff82169050919050565b6000819050919050565b600063ffffffff82169050919050565b600067ffffffffffffffff82169050919050565b60006112fc82611282565b9050919050565b82818337600083830152505050565b60005b83811015611330578082015181840152602081019050611315565b8381111561133f576000848401525b50505050565b61134e826114b0565b810181811067ffffffffffffffff8211171561136d5761136c611463565b5b80604052505050565b6000611381826112c3565b915061138c836112c3565b92508261139c5761139b6113d6565b5b828206905092915050565b7f4e487b7100000000000000000000000000000000000000000000000000000000600052601160045260246000fd5b7f4e487b7100000000000000000000000000000000000000000000000000000000600052601260045260246000fd5b7f4e487b7100000000000000000000000000000000000000000000000000000000600052602160045260246000fd5b7f4e487b7100000000000000000000000000000000000000000000000000000000600052603260045260246000fd5b7f4e487b7100000000000000000000000000000000000000000000000000000000600052604160045260246000fd5b600080fd5b600080fd5b600080fd5b600080fd5b600080fd5b600080fd5b6000601f19601f8301169050919050565b50565b600281106114d5576114d4611405565b5b50565b6114e1816112c3565b81146114ec57600080fd5b5056fea2646970667358221220be0c4a2675539a2ab9ad1bbd41e08790c9b74c487ec5f5a321895abf8322d3dc64736f6c63430008070033",
  "devdoc": {
    "kind": "dev",
    "methods": {},
    "version": 1
  },
  "userdoc": {
    "kind": "user",
    "methods": {},
    "version": 1
  },
  "storageLayout": {
    "storage": [
      {
        "astId": 196,
        "contract": "contracts/Raffle.sol:Raffle",
        "label": "s_players",
        "offset": 0,
        "slot": "0",
        "type": "t_array(t_address_payable)dyn_storage"
      },
      {
        "astId": 213,
        "contract": "contracts/Raffle.sol:Raffle",
        "label": "s_recentWinner",
        "offset": 0,
        "slot": "1",
        "type": "t_address"
      },
      {
        "astId": 216,
        "contract": "contracts/Raffle.sol:Raffle",
        "label": "s_raffleState",
        "offset": 20,
        "slot": "1",
        "type": "t_enum(RaffleState)191"
      },
      {
        "astId": 218,
        "contract": "contracts/Raffle.sol:Raffle",
        "label": "s_lastTimeStamp",
        "offset": 0,
        "slot": "2",
        "type": "t_uint256"
      }
    ],
    "types": {
      "t_address": {
        "encoding": "inplace",
        "label": "address",
        "numberOfBytes": "20"
      },
      "t_address_payable": {
        "encoding": "inplace",
        "label": "address payable",
        "numberOfBytes": "20"
      },
      "t_array(t_address_payable)dyn_storage": {
        "base": "t_address_payable",
        "encoding": "dynamic_array",
        "label": "address payable[]",
        "numberOfBytes": "32"
      },
      "t_enum(RaffleState)191": {
        "encoding": "inplace",
        "label": "enum Raffle.RaffleState",
        "numberOfBytes": "1"
      },
      "t_uint256": {
        "encoding": "inplace",
        "label": "uint256",
        "numberOfBytes": "32"
      }
    }
  }
}